S0170000746573745F72733233325F636F6D6D2E7372656367
S11300000C9434000C9446000C9446000C94460066
S11300100C9446000C9446000C9446000C94460044
S11300200C9446000C9446000C9446000C94460034
S11300300C9446000C9446000C9446000C94460024
S11300400C9446000C9446000C949E000C944600BC
S11300500C947A000C9446000C9446000C944600D0
S11300600C9446000C94460011241FBECFEFD8E038
S1130070DEBFCDBF21E0A0E0B1E001C01D92A03001
S1130080B207E1F70E94C2000C94CF000C94000068
S113009080E28093C00088ED8093C1008EE080935D
S11300A0C20083E38093C4001092C5000895E1EC7C
S11300B0F0E098E590839081E0ECF0E0908195FF8A
S11300C0FDCF8093C60008958FEB8093C100E1ECCF
S11300D0F0E0808186FDFDCF08958FE78093C10015
S11300E0E1ECF0E080818823ECF38091C6000E946B
S11300F0570008951F920F920FB60F9211242F9359
S11301003F934F935F936F937F938F939F93AF939B
S1130110BF93EF93FF930E946400FF91EF91BF910F
S1130120AF919F918F917F916F915F914F913F918B
S11301302F910F900FBE0F901F9018951F920F9242
S11301400FB60F9211242F933F934F935F936F93A6
S11301507F938F939F93AF93BF93EF93FF930E94EB
S11301606D00FF91EF91BF91AF919F918F917F911E
S11301706F915F914F913F912F910F900FBE0F9010
S11301801F9018950E94480078942FEF84E39CE018
S1130190215080409040E1F700C00000FFCFF89468
S10501A0FFCF8B
S9030000FC
