:100000008FC00000ABC00000A9C00000A7C0000066
:10001000A5C00000A3C00000A1C000009FC0000058
:100020009DC000009BC0000099C0000097C0000068
:1000300095C0000093C0000091C000008FC0000078
:100040008DC000008BC0000089C0000087C0000088
:1000500085C0000083C0000081C000007FC0000098
:100060007DC000007BC0000079C0000077C00000A8
:1000700075C0000073C0000071C000006FC00000B8
:100080006DC000006BC0000069C0000067C00000C8
:1000900065C0000063C0000061C000005FC00000D8
:1000A0005DC000005BC0000059C0000057C00000E8
:1000B00055C0000053C0000051C000004FC00000F8
:1000C0004DC000004BC0000049C0000047C0000008
:1000D00045C0000043C0000041C000003FC0000018
:1000E0003DC000003BC0000039C0000037C0000028
:1000F00035C0000033C0000031C000002FC0000038
:100100002DC000002BC0000029C0000027C0000047
:1001100025C0000023C0000021C000001FC0000057
:1001200011241FBECFEFD1E4DEBFCDBF18E0A0E0A9
:10013000B2E0E8E6F9E100E00BBF02C007900D92E3
:10014000AE34B107D9F728E0AEE4B8E001C01D92A3
:10015000A737B207E1F7DAD60C94B20C51CFCF93A0
:10016000DF931F92CDB7DEB78FEF8093640080934B
:1001700065008FB78983F89489815F9350E8509325
:10018000610050E0509361005F918FBF0F90DF914D
:10019000CF910895CF93DF931F92CDB7DEB79FB76E
:1001A0009983F8949981823040F4E82FF0E0EC597B
:1001B000FF4F60958081682360839FBF0F90DF9120
:1001C000CF910895CF93DF931F92CDB7DEB7809183
:1001D0006B0890916C08E0916708F0916808BE0187
:1001E0006F5F7F4F09958981082E000C990B0F9046
:1001F000DF91CF910895682F80916B0890916C08E2
:10020000E0916908F0916A08099599231CF081E052
:1002100090E008958FEF9FEF0895CF93DF9300D084
:1002200000D0CDB7DEB7009791F07C836B839A83C3
:10023000898380E598E0D9D69C01009759F48B8199
:100240009C81E981FA81099580E090E004C080E01A
:1002500090E001C0932F0F900F900F900F90DF91BF
:10026000CF910895CF93DF93CDB7DEB7ED81FE81B7
:1002700089859A852B853C853F932F939F938F93F8
:1002800087818F9386818F9387E192E09F938F93ED
:1002900073D70DE618E0AE01415F5F4F6D857E8537
:1002A000F80182819381ABD7F801628173818DE07F
:1002B00090E026D7F801628173818AE090E020D730
:1002C0006F81788580E598E0B0D62F923F924F926B
:1002D0005F926F927F928F929F92AF92BF92CF92D6
:1002E000DF92EF92FF920F931F93CF93DF936C01F6
:1002F000DC0115968C9115978F9314968C918F93A2
:1003000085E392E09F938F9337D7F60180819181A7
:100310000F900F900F900F90009709F4AFC0E12C51
:10032000F12C612C712CA12CB12C0F2EF2E58F2E0B
:10033000F2E09F2EF02D0F2EFFE74F2EF2E05F2E02
:10034000F02DD6011296ED91FC911397C701880FFD
:10035000991FE80FF91FC081D181D0934F08C09336
:100360004E088F818F938E818F939F928F9204D7A7
:100370000F900F900F900F9088819981892B01F138
:1003800085E692E00CD7BE018881998146DF8C0119
:100390000097B1F01F938F93E9E7F2E0FF93EF939B
:1003A0008F818F938E818F935F924F92E5D68DB719
:1003B0009EB708960FB6F8949EBF0FBE8DBF47C07C
:1003C000BE018A819B8129DF8C010097A9F01F93D0
:1003D0008F93A2EAB2E0BF93AF938F818F938E8108
:1003E0008F935F924F92C8D68DB79EB708960FB67F
:1003F000F8949EBF0FBE8DBF8C819D81892B19F112
:1004000087EA92E0CCD6BE018C819D8106DF1C017B
:100410000097C9F001151105B1F43F928F93ACEB31
:10042000B2E0BF93AF938F818F938E818F935F9252
:100430004F92A2D68DB79EB708960FB6F8949EBF7E
:100440000FBE8DBF810110924F0810924E081123EC
:1004500024F49FEF691A790A06C0101611061CF4DD
:10046000AFEFAA1ABA0ABFEFEB1AFB0AF6018081B6
:100470009181E816F90608F464CF04C0612C712C50
:10048000A12CB12C7F926F92BF92AF929F938F93CA
:10049000D60115968C9115978F9314968C918F9306
:1004A00084EC92E09F938F9367D6EDB7FEB73A96B0
:1004B0000FB6F894FEBF0FBEEDBFC501860D971DA8
:1004C000DF91CF911F910F91FF90EF90DF90CF9030
:1004D000BF90AF909F908F907F906F905F904F9064
:1004E0003F902F9008958FEF85B984B91AB88BB9D2
:1004F0009EB18DB18C618F7D8DB9892F8C638EB942
:100500000895FC01908195FFFDCF668380E00895FA
:10051000FC0190819923ECF7868108954F925F92B8
:100520006F927F928F929F92AF92BF92CF92DF9203
:10053000EF92FF920F931F93CF93DF93EC016A0129
:100540007B0128013901689412F8769467945794D6
:1005500047941694D1F7888181FD0EC04801590156
:10056000072E73E1B694A794979487947A95D1F760
:10057000702DD301C20115C0D901C801689413F8C8
:10058000B695A795979587951694D1F74801590187
:10059000072E74E1B694A794979487947A95D1F72F
:1005A000702D8C159D05AE05BF0568F1C814D904E2
:1005B000EA04FB0450F1888181FF0FC0A701960176
:1005C000220F331F441F551FC301B201ECD4DA01BF
:1005D000C9010197A109B10912C0C901B801689404
:1005E00013F896958795779567951694D1F7A70197
:1005F0009601D9D4DA01C9010197A109B1099D83F6
:100600008C8381E003C080E001C080E0DF91CF9166
:100610001F910F91FF90EF90DF90CF90BF90AF9020
:100620009F908F907F906F905F904F9008950F9361
:100630001F93CF93DF93EC018B01803C910521F454
:1006400062E080E0A7DD06C0883C910519F461E016
:1006500081E0A0DD8A818F738A83F801268135814C
:1006600084819A81482F4370440F997F942B9A83F9
:1006700099818470880F880F9B7F892B89838A8159
:100680008F7C832B8A839A81977F822F880F880F94
:10069000880F892B8A83408151816281738100E0B8
:1006A00012E12AE730E0CE0139DF99819860998321
:1006B000998190619983DF91CF911F910F91089556
:1006C000CF92DF92EF92FF920F931F93CF93DF931E
:1006D000EC01D901C801B695A7959795879548175C
:1006E00059076A077B0788F46A017B01CC0CDD1C83
:1006F000EE1CFF1CC901B801A701960154D4DA0110
:10070000C9010197A109B10903C080E090E0DC01B3
:100710009D838C83DF91CF911F910F91FF90EF907C
:10072000DF90CF900895CF93DF93C82FD92FE0ECBF
:10073000F0E08281806C82838281807C803CC9F081
:1007400083E093E09F938F931F928CE98F9382E3D2
:1007500093E09F938F931F9281E08F93DF93CF93CA
:1007600081DD8DB79EB70A960FB6F8949EBF0FBE77
:100770008DBFE0ECF0E082818F73806482838281A0
:10078000807C8034C9F086E493E09F938F931F921E
:1007900083EA8F9382E393E09F938F931F9281E08C
:1007A0008F93DF93CF935EDD8DB79EB70A960FB61A
:1007B000F8949EBF0FBE8DBFE0ECF0E080818260B8
:1007C0008083808181FD19C084E793E09F938F939C
:1007D0001F9288EA8F9382E393E09F938F931F92F7
:1007E00081E08F93DF93CF933DDD8DB79EB70A965F
:1007F0000FB6F8949EBF0FBE8DBFE0ECF0E0808195
:100800008D7F8083808181FF19C08FE993E09F9362
:100810008F931F928CEA8F9382E393E09F938F9341
:100820001F9281E08F93DF93CF931CDD8DB79EB72E
:100830000A960FB6F8949EBF0FBE8DBFE0ECF0E0B5
:10084000818180618183818184FD19C08BEC93E07B
:100850009F938F931F9281EB8F9382E393E09F93FB
:100860008F931F9281E08F93DF93CF93FBDC8DB743
:100870009EB70A960FB6F8949EBF0FBE8DBFE0ECF0
:10088000F0E081818F7E8183818184FF19C08DEEAC
:1008900093E09F938F931F9285EB8F9382E393E076
:1008A0009F938F931F9281E08F93DF93CF93DADC36
:1008B0008DB79EB70A960FB6F8949EBF0FBE8DBF38
:1008C000E0ECF0E0818188608183818183FD19C043
:1008D00080E194E09F938F931F928AEB8F9382E342
:1008E00093E09F938F931F9281E08F93DF93CF9339
:1008F000B9DC8DB79EB70A960FB6F8949EBF0FBEAF
:100900008DBFE0ECF0E08181877F8183818183FF6F
:1009100019C082E394E09F938F931F928EEB8F9385
:1009200082E393E09F938F931F9281E08F93DF93F5
:10093000CF9398DC8DB79EB70A960FB6F8949EBFFA
:100940000FBE8DBFE0ECF0E0818180648183818106
:1009500086FD19C085E594E09F938F931F9283ECE9
:100960008F9382E393E09F938F931F9281E08F9305
:10097000DF93CF9377DC8DB79EB70A960FB6F894C6
:100980009EBF0FBE8DBFE0ECF0E081818F7B818345
:10099000818186FF19C08AE894E09F938F931F920C
:1009A00087EC8F9382E393E09F938F931F9281E074
:1009B0008F93DF93CF9356DC8DB79EB70A960FB611
:1009C000F8949EBF0FBE8DBFE0ECF0E0818180689F
:1009D000818381818823CCF080EC94E09F938F9376
:1009E0001F928CEC8F9382E393E09F938F931F92DF
:1009F00081E08F93DF93CF9335DC8DB79EB70A9656
:100A00000FB6F8949EBF0FBE8DBFE0ECF0E0818181
:100A10008F77818381818823CCF485EF94E09F9345
:100A20008F931F9280ED8F9382E393E09F938F9338
:100A30001F9281E08F93DF93CF9314DC8DB79EB725
:100A40000A960FB6F8949EBF0FBE8DBFE0ECF0E0A3
:100A5000818180628183818185FD19C08BE295E06F
:100A60009F938F931F9285ED8F9382E393E09F93E3
:100A70008F931F9281E08F93DF93CF93F3DB8DB73A
:100A80009EB70A960FB6F8949EBF0FBE8DBFE0ECDE
:100A9000F0E081818F7D8183818185FF19C088E6A7
:100AA00095E09F938F931F9289ED8F9382E393E05C
:100AB0009F938F931F9281E08F93DF93CF93D2DB2D
:100AC0008DB79EB70A960FB6F8949EBF0FBE8DBF26
:100AD000E0ECF0E082818660828381818B7F81837C
:100AE00082818F7C80628283828188608283808120
:100AF00084FF19C086EA95E09F938F931F9280EE42
:100B00008F9382E393E09F938F931F9281E08F9363
:100B1000DF93CF93A7DB8DB79EB70A960FB6F894F5
:100B20009EBF0FBE8DBFDF91CF9108950F931F938E
:100B3000CF93DF93CDB7DEB729970FB6F894DEBF1A
:100B40000FBECDBF182F092F87E0E6E0F2E0DE01EF
:100B5000119601900D928A95E1F7BE016F5F7F4F6C
:100B600080EC90E064DD8091C00085FD16C08DECC6
:100B700095E09F938F931F928DEF8F9382E393E085
:100B80009F938F931F9281E08F930F931F936ADB44
:100B90000FB6F894DEBF0FBECDBF82E68093C600CD
:100BA000198618868885998580329E4450F48885F8
:100BB00099850196998788878885998580329E4492
:100BC000B0F3E0ECF0E0808196818823B4F08BEF05
:100BD00095E09F938F9381E08F9396E09F9322E31C
:100BE00033E03F932F931F928F930F931F933ADB22
:100BF0000FB6F894DEBF0FBECDBF8091C00086FD5A
:100C000016C086E296E09F938F9381E08F939AE0DF
:100C10009F9322E333E03F932F931F928F930F9381
:100C20001F9320DB0FB6F894DEBF0FBECDBF299611
:100C30000FB6F894DEBF0FBECDBFDF91CF911F91ED
:100C40000F9108955ECC0895EF92FF920F931F933A
:100C5000CF93DF93F82EE92E62E080E09BDAC0ECC0
:100C6000D0E08A818F7380648A83729A6A9A00E0E6
:100C700012E12AE730E040E855E260E070E080EC05
:100C800090E01EDD89818860898389818061898304
:100C900063E680EC90E035DC80EC90E039DC833674
:100CA000F1F01F9293E69F931F928F9382E596E057
:100CB0009F938F931F9288E88F9382E393E09F9393
:100CC0008F931F9281E08F93EF92FF92CBDA8DB7D3
:100CD0009EB70E960FB6F8949EBF0FBE8DBFDF91E4
:100CE000CF911F910F91FF90EF9008950F931F9355
:100CF000CF93DF93CDB7DEB727970FB6F894DEBF5B
:100D00000FBECDBF182F092F87E0E6E0F2E0DE012D
:100D1000119601900D928A95E1F7BE016F5F7F4FAA
:100D200080EC90E084DC61E680EC90E0EADB80EC33
:100D300090E0EEDB8136D9F01F9291E69F931F92EF
:100D40008F938CE896E09F938F931F9285E68F9305
:100D500082E393E09F938F931F9281E08F930F9391
:100D60001F9380DA0FB6F894DEBF0FBECDBF279673
:100D70000FB6F894DEBF0FBECDBFDF91CF911F91AC
:100D80000F910895CF93DF93EB01C2DB8883DF914E
:100D9000CF9108950F931F93CF93DF93C82FD92F2F
:100DA00000E012E12AE730E040E659E060E070E060
:100DB00080EC90E0B3DBE0ECF0E080818081848126
:100DC00095818F3C9105C9F084EB96E09F938F93BA
:100DD00081E08F939AE49F9322E333E03F932F9334
:100DE0001F928F93DF93CF933DDA8DB79EB70A960C
:100DF0000FB6F8949EBF0FBE8DBF00E012E12AE748
:100E000030E040E855E260E070E080EC90E086DBA6
:100E1000E0ECF0E08081808184819581C397C9F006
:100E200085ED96E09F938F9381E08F9391E59F935B
:100E300022E333E03F932F931F928F93DF93CF935F
:100E400011DA8DB79EB70A960FB6F8949EBF0FBE03
:100E50008DBF00E012E12AE730E040E05BE460E0B3
:100E600070E080EC90E05ADBE0ECF0E08081808183
:100E7000848195814997C9F086EF96E09F938F937F
:100E800081E08F9398E59F9322E333E03F932F9384
:100E90001F928F93DF93CF93E5D98DB79EB70A96B4
:100EA0000FB6F8949EBF0FBE8DBF00E012E12AE797
:100EB00030E040E056E960E070E080EC90E02EDB4E
:100EC000E0ECF0E080818081848195810C97C9F00D
:100ED00088E197E09F938F9381E08F939FE59F93A5
:100EE00022E333E03F932F931F928F93DF93CF93AF
:100EF000B9D98DB79EB70A960FB6F8949EBF0FBEAC
:100F00008DBFDF91CF911F910F910895CF93DF9304
:100F1000CDB7DEB767970FB6F894DEBF0FBECDBF73
:100F2000E2DA1DD988EC90E090936C0880936B080E
:100F300082E296E090936A088093690882EC96E0DA
:100F4000909368088093670883E08D8B1E8A1F8AC0
:100F500080E096E9A0E0B0E0898B9A8BAB8BBC8BEC
:100F6000BE016F5E7F4F88EC90E061DB62EE70E067
:100F70008BEF90E07BD02AE0EDE0F2E0CE0101962D
:100F8000DC0101900D922A95E1F725E030E03C87E5
:100F90002B879E878D878EE298E0988B8F87CE0176
:100FA0000B9693D9FFCFA1E21A2EAA1BBB1BFD0102
:100FB0000DC0AA1FBB1FEE1FFF1FA217B307E40738
:100FC000F50720F0A21BB30BE40BF50B661F771F90
:100FD000881F991F1A9469F7609570958095909570
:100FE0009B01AC01BD01CF010895DC012D923D9222
:100FF0004D925D926D927D928D929D92AD92BD9239
:10100000CD92DD92ED92FD920D931D93CD93DD93E4
:10101000FF91EF918DB78D938EB78D938FB78D9391
:10102000ED93FD93882799270994DC01CB0181304A
:101030009105811D2D903D904D905D906D907D901E
:101040008D909D90AD90BD90CD90DD90ED90FD90F8
:101050000D911D91CD91DD91ED91FD910D90F89443
:10106000FEBF0FBEEDBFED91FD9109940F931F934D
:10107000CF93DF93009731F46115710519F480E087
:1010800090E039C08B01EC016EE070E081E090E00F
:10109000B3D2FC01892B99F380E8838301151105F4
:1010A00071F01387028781E8838380916D089091A6
:1010B0006E08892B21F4F0936E08E0936D08209759
:1010C000C9F0D187C08783818260838380916F0854
:1010D00090917008892B71F4F0937008E0936F0879
:1010E0008091710890917208892B21F4F093720815
:1010F000E0937108CF01DF91CF911F910F91089577
:101100000F931F93CF93DF93FB01238121FD03C036
:101110008FEF9FEF2CC022FF16C04681578124819C
:1011200035814217530744F4A081B1819D012F5F9F
:101130003F4F318320838C93268137812F5F3F4F30
:101140003783268314C08B01EC01FB010084F185F9
:10115000E02D0995892BE1F6D80116968D919C9189
:101160001797019617969C938E931697CE01DF9151
:10117000CF911F910F910895CF93DF93CDB7DEB735
:10118000AE014B5F5F4FFA0161917191AF018091A8
:101190006F089091700833D0DF91CF9108950F932D
:1011A0001F93CF93DF93E0916F08F0917008238134
:1011B00021FF1BC08C01D0E0C0E0F80181918F01BC
:1011C00060916F0870917008DB011896ED91FC91A9
:1011D0001997882331F00995892B79F3DFEFCFEF49
:1011E000ECCF8AE00995892B19F08FEF9FEF02C0B1
:1011F0008D2F9C2FDF91CF911F910F9108952F92EA
:101200003F924F925F926F927F928F929F92AF9296
:10121000BF92CF92DF92EF92FF920F931F93CF93E3
:10122000DF93CDB7DEB72B970FB6F894DEBF0FBEB6
:10123000CDBF6C017B018A01FC011782168283817C
:1012400081FFBFC1CE0101963C01F6019381F701F8
:1012500093FD859193FF81917F01882309F4ADC1AE
:10126000853239F493FD859193FF81917F01853219
:1012700021F4B60190E044DFE8CF912C212C312CF1
:10128000FFE1F315D8F08B3279F038F4803279F041
:101290008332A1F4232D20611DC08D3261F0803393
:1012A00069F4232D216016C0832D8260382EE32D32
:1012B000E4603E2E2AC0F32DF8601DC037FC2DC01F
:1012C00020ED280F2A3040F08E32B9F436FC75C17B
:1012D000232D2064322E19C036FE06C08AE0989E67
:1012E000200D1124922E11C0EAE02E9E200D112413
:1012F000222EF32DF0623F2E08C08C3621F4832D70
:101300008068382E02C0883641F4F70193FD85913C
:1013100093FF81917F018111B3CF982F9F7D9554C9
:10132000933028F40C5F1F4F9FE399830DC08336E1
:1013300031F0833771F0833509F055C020C0F801D2
:10134000808189830E5F1F4F88248394912C5301E1
:1013500012C02801F2E04F0E511CF801A080B180AC
:1013600036FE03C0692D70E002C06FEF7FEFC5014C
:1013700090D24C018201F32DFF773F2E15C028013A
:1013800022E0420E511CF801A080B18036FE03C05D
:10139000692D70E002C06FEF7FEFC50168D24C018C
:1013A000F32DF0683F2E820133FC19C0822D90E0AE
:1013B00088169906A0F4B60180E290E0A1DE2A9496
:1013C000F5CFF50137FC859137FE81915F01B601BC
:1013D00090E096DE21102A9421E0821A910881146F
:1013E000910479F7E1C0843611F0893639F5F801B6
:1013F00037FE07C060817181828193810C5F1F4F2E
:1014000008C060817181072E000C880B990B0E5F5C
:101410001F4FF32DFF763F2E97FF09C090958095C3
:10142000709561957F4F8F4F9F4FF0683F2E2AE058
:1014300030E0A30139D2882E861844C0853731F4B4
:10144000232D2F7EB22E2AE030E025C0932D997FE8
:10145000B92E8F36C1F018F4883579F0AEC08037D8
:1014600019F0883721F0A9C0E92FE061BE2EB4FE43
:101470000DC0FB2DF460BF2E09C034FE0AC0292F19
:101480002660B22E06C028E030E005C020E130E042
:1014900002C020E132E0F801B7FE07C0608171812F
:1014A000828193810C5F1F4F06C06081718180E053
:1014B00090E00E5F1F4FA301F7D1882E8618FB2DF9
:1014C000FF773F2E36FE0DC0232D2E7FA22E8914CE
:1014D00058F434FE0BC032FC09C0832D8E7EA82E3A
:1014E00005C0B82CA32C03C0B82C01C0B92CA4FE95
:1014F0000FC0FE01E80DF11D8081803321F49A2D8B
:10150000997EA92E09C0A2FE06C0B394B39404C06C
:101510008A2D867809F0B394A3FC10C0A0FE06C003
:10152000B21480F4280C922C9B180DC0B21458F4FD
:10153000B60180E290E0E4DDB394F8CFB21418F481
:101540002B1802C0982C212CA4FE0FC0B60180E3FA
:1015500090E0D6DDA2FE16C0A1FC03C088E790E0B3
:1015600002C088E590E0B6010CC08A2D867851F063
:10157000A1FE02C08BE201C080E2A7FC8DE2B601B1
:1015800090E0BEDD891430F4B60180E390E0B8DD70
:101590009A94F8CF8A94F301E80DF11D8081B60189
:1015A00090E0AEDD8110F6CF222009F44ECEB601D8
:1015B00080E290E0A5DD2A94F7CFF601868197813D
:1015C00002C08FEF9FEF2B960FB6F894DEBF0FBED1
:1015D000CDBFDF91CF911F910F91FF90EF90DF90E2
:1015E000CF90BF90AF909F908F907F906F905F90C3
:1015F0004F903F902F9008950F931F93CF93DF93B9
:10160000869F8001879F100D969F100D1124C801A1
:101610000DD0EC01009721F0A80160E070E032D11C
:10162000CE01DF91CF911F910F9108950F931F93DA
:10163000CF93DF938230910510F482E090E0E09147
:101640007508F091760820E030E0A0E0B0E0309737
:1016500019F1408151810281138148175907C8F05F
:101660008417950769F4109731F012960C9312972E
:1016700013961C9327C0009375081093760822C018
:101680002115310519F04217530718F49A01BD01CD
:10169000EF01DF01F801DBCF21153105F9F0281B3F
:1016A000390B2430310580F48A819B8161157105E5
:1016B00021F0FB019383828304C09093760880938A
:1016C0007508FE01329644C0FE01E20FF31F8193BC
:1016D000919322503109398328833AC020917308AD
:1016E00030917408232B41F42091020230910302BF
:1016F0003093740820937308209100023091010206
:101700002115310541F42DB73EB7409104025091A7
:101710000502241B350BE0917308F0917408E21761
:10172000F307A0F42E1B3F0B2817390778F0AC0104
:101730004E5F5F4F2417350748F04E0F5F1F5093E1
:101740007408409373088193919302C0E0E0F0E045
:10175000CF01DF91CF911F910F910895CF93DF9328
:10176000009709F481C0FC01329713821282A09184
:101770007508B0917608109781F420813181820F2D
:10178000931F20917308309174082817390751F579
:10179000F0937408E093730867C0ED0120E030E037
:1017A000CE17DF0740F44A815B819E014115510548
:1017B000F1F0EA01F5CFD383C28340815181840FD8
:1017C000951FC817D90759F488819981840F951FEF
:1017D0000296918380838A819B81938382832115E2
:1017E000310529F4F0937608E09375083DC0E901CE
:1017F000FB83EA8349915991C40FD51FEC17FD076C
:1018000061F480819181840F951F0296E90199838B
:101810008883828193819B838A83E0E0F0E0129643
:101820008D919C911397009719F0FD01DC01F7CF82
:101830008D919C9111979D012E5F3F4F820F931FB9
:1018400020917308309174082817390769F430978C
:1018500029F4109276081092750802C01382128241
:10186000B0937408A0937308DF91CF910895FC01A1
:101870000590615070400110D8F7809590958E0FBB
:101880009F1F0895DC0101C06D9341505040E0F767
:101890000895FC016150704001900110D8F78095C7
:1018A00090958E0F9F1F0895FA01AA27283051F1B5
:1018B000203181F1E8946F936E7F6E5F7F4F8F4F81
:1018C0009F4FAF4FB1E03ED0B4E03CD0670F781FE0
:1018D000891F9A1FA11D680F791F8A1F911DA11DC5
:1018E0006A0F711D811D911DA11D20D009F46894FE
:1018F0003F912AE0269F11243019305D3193DEF6A6
:10190000CF010895462F4770405D4193B3E00FD05B
:10191000C9F7F6CF462F4F70405D4A3318F0495D46
:1019200031FD4052419302D0A9F7EACFB4E0A69529
:101930009795879577956795BA95C9F7009761054B
:10194000710508959B01AC010A2E069457954795A1
:1019500037952795BA95C9F7620F731F841F951F96
:08196000A01D0895F894FFCFCB
:10196800000077082000802500000300006507A517
:1019780007D007FE072608546573742027257327A8
:10198800206661696C65642061742025733A257549
:101998003A0D0A090052756E6E696E672074657398
:1019A8007420737569746520272573272E2E2E0DD4
:1019B8000A0052756E6E696E6720746573743A20FA
:1019C80025730D0A0053657474696E67207570205D
:1019D800666978747572650D007365747570005466
:1019E8006573742027257327206661696C656420F8
:1019F800647572696E6720272573273A2025640D60
:101A08000A007465737400436C65616E696E6720C3
:101A1800757020666978747572650D00636C656110
:101A28006E7570005465737420737569746520272A
:101A380025732720636F6D706C6574653A20257572
:101A48002074657374732C202575206661696C7524
:101A58007265732C202575206572726F72730D0A7A
:101A68000D0A00547279696E6720746F207365746B
:101A7800205553415254206D6F646520746F206D5A
:101A8800617374657220535049206661696C65649E
:101A98002E002E2E2F7372632F756E69745F746516
:101AA8007374732E6300547279696E6720746F20A3
:101AB800736574205553415254206D6F64652074CA
:101AC8006F2073796E63206D6F6465206661696C41
:101AD80065642E00547279696E6720746F20656E94
:101AE80061626C6520555341525420646F75626C75
:101AF800652062617564206661696C65642E0054B6
:101B08007279696E6720746F2064697361626C65AD
:101B180020555341525420646F75626C6520626190
:101B28007564206661696C65642E00547279696E0B
:101B38006720746F20656E61626C65205553415251
:101B480054205258206661696C65642E005472797D
:101B5800696E6720746F2064697361626C652055D3
:101B680053415254205258206661696C65642E00B6
:101B7800547279696E6720746F20656E61626C6556
:101B8800205553415254205458206661696C65644D
:101B98002E00547279696E6720746F2064697361CE
:101BA800626C65205553415254205458206661692F
:101BB8006C65642E00547279696E6720746F2065B5
:101BC8006E61626C6520555341525420545820432D
:101BD8006F6D706C65746520696E7465727275706E
:101BE80074206661696C65642E00547279696E6749
:101BF80020746F2064697361626C6520555341528B
:101C08005420545820436F6D706C65746520696E5C
:101C180074657272757074206661696C65642E00F3
:101C2800547279696E6720746F20656E61626C65A5
:101C380020555341525420525820436F6D706C65A3
:101C4800746520696E746572727570742066616956
:101C58006C65642E00547279696E6720746F206415
:101C6800697361626C652055534152542052582063
:101C7800436F6D706C65746520696E7465727275FA
:101C88007074206661696C65642E00547279696E9F
:101C98006720746F20656E61626C652055534152F0
:101CA8005420646174612072656769737465722079
:101CB800656D70747920696E7465727275707420C0
:101CC8006661696C65642E00547279696E67207468
:101CD8006F2064697361626C6520555341525420CA
:101CE8006461746120726567697374657220656DDB
:101CF80070747920696E746572727570742066618B
:101D0800696C65642E00547279696E6720746F205F
:101D180073657420746865204672616D6520466F2E
:101D2800726D6174206661696C65642E0043686534
:101D3800636B696E672069662074686520646174E6
:101D48006120726567697374657220697320656DB7
:101D5800707479206661696C656400436865636BBB
:101D6800696E6720696620746865207265636569B5
:101D780076652069732066696E6973686564206694
:101D880061696C656400436865636B696E672069A7
:101D98006620746865207472616E736D6974206959
:101DA800732066696E6973686564206661696C652D
:101DB800640052656164206368617261637465726E
:101DC800207468726F7567682073796E63206D6F11
:101DD8006465206973206E6F7420636F7272656327
:101DE800743A20256420213D2025640052656164F1
:101DF80020636861726163746572206973206E6F15
:101E08007420636F72726563743A20256420213DE3
:101E18002025640053657474696E67206261756477
:101E2800207261746520746F20323430302066610E
:101E3800696C65640053657474696E6720626175C6
:101E480064207261746520746F20393630302066E2
:101E580061696C65640053657474696E67206261BA
:101E68007564207261746520746F203139323030A6
:101E7800206661696C65640053657474696E6720D7
:101E880062617564207261746520746F2033383420
:101E98003030206661696C65640054657374206C29
:101EA8006F6F70696E67206261636B20636861722F
:101EB800616374657273207468726F756768205502
:101EC80053415254000000760600003A07546573E7
:101ED80074206C6F6F70696E67206261636B20633A
:101EE800686172616374657273207468726F756774
:101EF800682073796E63206D6F6465206F66205566
:101F080053415254000000240600006D07546573C5
:101F1800742073657474696E67206F6620766172C9
:101F2800696F75732070726F70657274696573007C
:101F3800000093030000AD0754657374206368655F
:101F4800636B696E67207265676973746572732065
:101F5800616E64207472616E73666572730000004E
:101F680096050000D8075465737420736574746906
:101F78006E67207374616E64617264206261756457
:101F88007261746573000000CA06000006084D45BA
:101F98004741524620555341525420647269766530
:0E1FA80072207465737420737569746500008F
:00000001FF
