:100000000C9434000C9446000C9446000C9446006A
:100010000C9446000C9446000C9446000C94460048
:100020000C9446000C9446000C9446000C94460038
:100030000C9446000C9446000C9446000C94460028
:100040000C9446000C9446000C9462000C944600FC
:100050000C9448000C9446000C9446000C94460006
:100060000C9446000C94460011241FBECFEFD8E03C
:10007000DEBFCDBF22E0A0E0B1E001C01D92AD30F7
:10008000B207E1F70E94A9000C9471020C940000E1
:100090001F920F920FB60F9211248F93EF93FF933D
:1000A000E0ECF0E0808180648083E1ECF0E080812E
:1000B00086FDFDCFFF91EF918F910F900FBE0F90B6
:1000C0001F9018951F920F920FB60F9211242F9325
:1000D0003F934F935F936F937F938F939F93AF93D0
:1000E000BF93EF93FF930E94D001E1ECF0E0808199
:1000F0008F77808380818823ECF39091C600909362
:100100000B0188E58093C100E1ECF0E0808186FF7F
:10011000FDCFE0ECF0E0808185FFFDCF9093C6003D
:10012000E1ECF0E080818068808380818823ECF7B7
:10013000FF91EF91BF91AF919F918F917F916F91BF
:100140005F914F913F912F910F900FBE0F901F9095
:10015000189580E28093C000C1ECD0E088ED8883E0
:100160008EE08093C20083E38093C4001092C500A8
:10017000789460E080E00E94E3000E94D00188E56E
:100180008883E1ECF0E0808186FFFDCFE0ECF0E0D9
:10019000808185FFFDCF81E68093C60065E085E024
:1001A0000E94E30088E58093C100E1ECF0E08081EB
:1001B00086FFFDCFE0ECF0E0808185FFFDCF85E696
:1001C0008093C600FFCF98E59093C100E1ECF0E08A
:1001D000908196FFFDCFE0ECF0E0908195FFFDCFA0
:1001E0009BE19093C60098E59093C100E1ECF0E0AC
:1001F000908196FFFDCFE0ECF0E0908195FFFDCF80
:100200009BE59093C60029E2629F212D112422953F
:100210002F70205D98E59093C100E1ECF0E09081B3
:1002200096FFFDCFE0ECF0E0908195FFFDCF2093AD
:10023000C6009DEC699F212D1124269526952695B3
:10024000299F912D1124969596959695990F392F62
:10025000330F330F930F291B205D98E59093C10056
:10026000E1ECF0E0908196FFFDCFE0ECF0E09081D2
:1002700095FFFDCF2093C6009DEC699F912D112421
:10028000969596959695990F292F220F220F920FEA
:10029000691B605D98E59093C100E1ECF0E090810E
:1002A00096FFFDCFE0ECF0E0908195FFFDCF6093ED
:1002B000C60098E59093C100E1ECF0E0908196FFD4
:1002C000FDCFE0ECF0E0908195FFFDCF9BE39093B4
:1002D000C60029E2829F212D112422952F70205DD6
:1002E00098E59093C100E1ECF0E0908196FFFDCF9E
:1002F000E0ECF0E0908195FFFDCF2093C6009DECEF
:10030000899F212D1124269526952695299F912D8B
:100310001124969596959695990F392F330F330F93
:10032000930F291B205D98E59093C100E1ECF0E06C
:10033000908196FFFDCFE0ECF0E0908195FFFDCF3E
:100340002093C6009DEC899F912D1124969596953A
:100350009695990F292F220F220F920F891B805DEE
:1003600098E59093C100E1ECF0E0908196FFFDCF1D
:10037000E0ECF0E0908195FFFDCF8093C60088E52A
:100380008093C100E1ECF0E0808186FFFDCFE0ECDE
:10039000F0E0808185FFFDCF88E48093C60008955A
:1003A00088E58093C100E1ECF0E0808186FFFDCF1D
:1003B000E0ECF0E0808185FFFDCF8BE18093C6000B
:1003C00088E58093C100E1ECF0E0808186FFFDCFFD
:1003D000E0ECF0E0808185FFFDCF8BE58093C600E7
:1003E00088E58093C100E1ECF0E0808186FFFDCFDD
:1003F000E0ECF0E0808185FFFDCF82E38093C600D2
:1004000088E58093C100E1ECF0E0808186FFFDCFBC
:10041000E0ECF0E0808185FFFDCF8AE48093C600A8
:1004200088E58093C100E1ECF0E0808186FFFDCF9C
:10043000E0ECF0E0808185FFFDCF8BE18093C6008A
:1004400088E58093C100E1ECF0E0808186FFFDCF7C
:10045000E0ECF0E0808185FFFDCF8BE58093C60066
:1004600088E58093C100E1ECF0E0808186FFFDCF5C
:10047000E0ECF0E0808185FFFDCF8FE38093C60044
:1004800088E58093C100E1ECF0E0808186FFFDCF3C
:10049000E0ECF0E0808185FFFDCF82E38093C60031
:1004A00088E58093C100E1ECF0E0808186FFFDCF1C
:1004B000E0ECF0E0808185FFFDCF85E38093C6000E
:1004C00088E58093C100E1ECF0E0808186FFFDCFFC
:1004D000E0ECF0E0808185FFFDCF8CE68093C600E4
:0604E0000895F894FFCF1F
:00000001FF
