S0170000746573745F72733233325F636F6D6D2E7372656367
S11300000C9434000C9451000C9451000C94510045
S11300100C9451000C9451000C9451000C94510018
S11300200C9451000C9451000C9451000C94510008
S11300300C9451000C9451000C9451000C945100F8
S11300400C9451000C9451000C94A8000C94510091
S11300500C9490000C9451000C9451000C94510099
S11300600C9451000C94510011241FBECFEFD8E022
S1130070DEBFCDBF12E0A0E0B1E0E2EBF1E002C0F0
S113008005900D92AC3EB107D9F722E0ACEEB2E098
S113009001C01D92AC3EB207E1F70E9453000C94DC
S11300A0D7000C9400000F931F93CF93DF9380E24B
S11300B08093C00088ED8093C1008EE08093C200DD
S11300C083E38093C4001092C5007894E0E0F1E0EB
S11300D001900020E9F731979F012050314012161A
S11300E01306BCF4A0E0B1E020503F4F01EC10E057
S11300F068E5E0ECF0E046EC50E09D91E8016883AF
S11301008881808185FFFDCFEA019883A217B30718
S1130110A1F780E090E0DF91CF911F910F910895B6
S11301201F920F920FB60F9211248F93EF93FF93A8
S11301308FEB8093C100E1ECF0E0808186FDFDCF80
S1130140FF91EF918F910F900FBE0F901F90189514
S11301501F920F920FB60F9211242F938F939F9398
S1130160EF93FF938FEB8093C100E1ECF0E080818B
S113017086FDFDCF8091C60090E08A5E924069F4CE
S1130180E1ECF0E088E580838081E0ECF0E08081C0
S113019085FFFDCF8AE08093C600FF91EF919F9188
S11301A08F912F910F900FBE0F901F901895F89478
S10501B0FFCF7B
S11301B22323232323232323232323232323232309
S11301C223232323232323232323232323232323F9
S11301D2230A0D232020202020202020202020203C
S11301E22020202020202020202020202020202009
S11301F2202020230A0D232020202020202020201C
S113020220202020202020202020202020202020E8
S1130212202020202020230A0D23202020202020FB
S113022220202020202020202020202020202020C8
S1130232202020202020202020230A0D23202020DB
S113024220202020202020202020202020202020A8
S1130252202020202020202020202020230A0D23BB
S11302622020202020202020202020202020202088
S11302722020202020202020202020202020202375
S11302820A0D23202020202020202020202020208E
S11302922020202020202020202020202020202058
S11302A22020230A0D23202020202020202020206B
S11302B22020202020202020202020202020202038
S11302C22020202020230A0D23202020202020204B
S11302D22020202020202020202020202020202018
S11302E22020202020202020230A0D23202020202B
S11302F220202020202020202020202020202020F8
S11303022020202020202020202020230A0D23200A
S113031220202020202020202020202020202020D7
S11303222020202020202020202020202020230ADA
S11303320D232020202020202020202020202020C7
S113034220202020202020202020202020202020A7
S113035220230A0D232020202020202020202020BA
S11303622020202020202020202020202020202087
S113037220202020230A0D23232323232323232382
S11303822323232323232323232323232323232337
S10F039223232323232323230A0D6100CB
S9030000FC
