S0170000746573745F72733233325F636F6D6D2E7372656367
S11300000C9434000C9446000C9446000C94460066
S11300100C9446000C9446000C9446000C94460044
S11300200C9446000C9446000C9446000C94460034
S11300300C9446000C9446000C9446000C94460024
S11300400C9446000C9446000C947C000C944600DE
S11300500C9458000C9446000C9446000C944600F2
S11300600C9446000C94460011241FBECFEFD8E038
S1130070DEBFCDBF21E0A0E0B1E001C01D92A03001
S1130080B207E1F70E9448000C94AC000C94000005
S113009080E28093C00088ED8093C1008EE080935D
S11300A0C20083E38093C4001092C5007894FFCF0C
S11300B01F920F920FB60F9211248F93EF93FF9319
S11300C0E0ECF0E080818F7B8083E1ECF0E08081E4
S11300D086FDFDCFE0ECF0E0808180648083E1EC7C
S11300E0F0E0808186FFFDCFFF91EF918F910F901B
S11300F00FBE0F901F9018951F920F920FB60F927C
S113010011248F939F93EF93FF93E1ECF0E08081B0
S11301108F77808380818823ECF39091C600E1EC93
S1130120F0E088E580838081E0ECF0E0808185FF69
S1130130FDCF9093C600E1ECF0E08081806880837D
S113014080818823ECF7FF91EF919F918F910F901D
S10F01500FBE0F901F901895F894FFCF7D
S9030000FC
