:100000000C9434000C9451000C9451000C94510049
:100010000C9451000C9451000C9451000C9451001C
:100020000C9451000C9451000C9451000C9451000C
:100030000C9451000C9451000C9451000C945100FC
:100040000C9451000C9451000C946D000C945100D0
:100050000C9453000C9451000C9451000C945100DA
:100060000C9451000C94510011241FBECFEFD8E026
:10007000DEBFCDBF11E0A0E0B1E0E2E4F5E002C0F8
:1000800005900D92A230B107D9F722E0A2E0B1E0CD
:1000900001C01D92A532B207E1F70E9481000C94C5
:1000A0009F020C9400001F920F920FB60F92112422
:1000B0008F93EF93FF93E0ECF0E080818064808386
:1000C000E1ECF0E0808186FDFDCFFF91EF918F9113
:1000D0000F900FBE0F901F9018951F920F920FB6A2
:1000E0000F9211248F939F9381E090E090931201DF
:1000F000809311019F918F910F900FBE0F901F90D1
:10010000189583E390E09093C5008093C40080E24B
:100110008093C00088ED8093C1008EE08093C20080
:1001200078940E94FC00C6ECD0E0E1ECF0E028ED11
:10013000A0ECB0E080911101909112018130910505
:10014000E9F79881909313012083808186FFFDCF8A
:100150008C9185FFFDCF98831092120110921101AE
:10016000E9CF88B1806388B9D89AECE6F0E0808165
:10017000806380830895AF92BF92CF92DF92EF9217
:10018000FF920F931F93CF93DF930F2EF3E0EF2E89
:10019000F1E0FF2EF02DB12CC1ECD0E00F2EF8EDE8
:1001A000AF2EF02D00EC10E00F2EF6ECCF2ED12C60
:1001B000F02D80910101609100018B0D0E941101D1
:1001C000F70191917F01A882888186FFFDCFF80118
:1001D000808185FFFCCFF6019083B394F3E0BF12DA
:1001E000E8CFDF91CF911F910F91FF90EF90DF90BB
:1001F000CF90BF90AF90089560E080E00E94110121
:100200000E94FE010E94B100E2E0F1E083E0808301
:100210008CE7848388E2858388E186830E94BB0023
:10022000089598ED9093C100E1ECF0E0908196FF85
:10023000FDCFE0ECF0E0908195FFFDCF9BE1909346
:10024000C60098ED9093C100E1ECF0E0908196FF3C
:10025000FDCFE0ECF0E0908195FFFDCF9BE5909322
:10026000C60029E2629F212D112422952F70205D66
:1002700098ED9093C100E1ECF0E0908196FFFDCF06
:10028000E0ECF0E0908195FFFDCF2093C6009DEC5F
:10029000699F212D1124269526952695299F912D1C
:1002A0001124969596959695990F392F330F330F04
:1002B000930F291B205D98ED9093C100E1ECF0E0D5
:1002C000908196FFFDCFE0ECF0E0908195FFFDCFAF
:1002D0002093C6009DEC699F912D112496959695CB
:1002E0009695990F292F220F220F920F691B605D9F
:1002F00098ED9093C100E1ECF0E0908196FFFDCF86
:10030000E0ECF0E0908195FFFDCF6093C60098EDA2
:100310009093C100E1ECF0E0908196FFFDCFE0EC1E
:10032000F0E0908195FFFDCF9BE39093C60029E21A
:10033000829F212D112422952F70205D98ED90939E
:10034000C100E1ECF0E0908196FFFDCFE0ECF0E041
:10035000908195FFFDCF2093C6009DEC899F212DB4
:100360001124269526952695299F912D1124969541
:1003700096959695990F392F330F330F930F291BAD
:10038000205D98ED9093C100E1ECF0E0908196FF44
:10039000FDCFE0ECF0E0908195FFFDCF2093C6000B
:1003A0009DEC899F912D1124969596959695990F80
:1003B000292F220F220F920F891B805D98ED9093B9
:1003C000C100E1ECF0E0908196FFFDCFE0ECF0E0C1
:1003D000908195FFFDCF8093C60088ED8093C1008A
:1003E000E1ECF0E0808186FFFDCFE0ECF0E0808181
:1003F00085FFFDCF88E48093C600089588ED809343
:10040000C100E1ECF0E0808186FFFDCFE0ECF0E0A0
:10041000808185FFFDCF8BE18093C60088ED8093BE
:10042000C100E1ECF0E0808186FFFDCFE0ECF0E080
:10043000808185FFFDCF8BE58093C60088ED80939A
:10044000C100E1ECF0E0808186FFFDCFE0ECF0E060
:10045000808185FFFDCF82E38093C60088ED809385
:10046000C100E1ECF0E0808186FFFDCFE0ECF0E040
:10047000808185FFFDCF8AE48093C60088ED80935C
:10048000C100E1ECF0E0808186FFFDCFE0ECF0E020
:10049000808185FFFDCF8BE18093C60088ED80933E
:1004A000C100E1ECF0E0808186FFFDCFE0ECF0E000
:1004B000808185FFFDCF8BE58093C60088ED80931A
:1004C000C100E1ECF0E0808186FFFDCFE0ECF0E0E0
:1004D000808185FFFDCF8FE38093C60088ED8093F8
:1004E000C100E1ECF0E0808186FFFDCFE0ECF0E0C0
:1004F000808185FFFDCF82E38093C60088ED8093E5
:10050000C100E1ECF0E0808186FFFDCFE0ECF0E09F
:10051000808185FFFDCF85E38093C60088ED8093C1
:10052000C100E1ECF0E0808186FFFDCFE0ECF0E07F
:10053000808185FFFDCF8CE68093C6000895F894F6
:02054000FFCFEB
:02054200182877
:00000001FF
